:020000040800F2
:10000000C0060020A1010008A323000889220008DF
:10001000A123000821130008172400080000000095
:10002000000000000000000000000000A7230008FE
:100030002313000800000000A5230008A9230008DE
:10004000BB010008BB010008BB010008BB010008A0
:10005000BB010008BB010008BB010008BB01000890
:10006000BB010008BB010008BB010008BB01000880
:10007000BB010008BB010008BB010008BB01000870
:10008000BB010008BB01000841120008BB010008C9
:10009000BB010008BB010008BB010008BB01000850
:1000A000BB010008BB010008BB010008BB01000840
:1000B000BB010008BB010008BB010008BB01000830
:1000C000BB010008BB010008BB010008BB01000820
:1000D000BB010008BB010008BB010008BB01000810
:1000E000BB010008BB010008BB01000800F002F8DA
:1000F00000F047F80AA090E8000C82448344AAF17B
:100100000107DA4501D100F03CF8AFF2090EBAE878
:100110000F0013F0010F18BFFB1A43F0010318473B
:100120002C2900004C290000103A24BF78C878C15F
:10013000FAD8520724BF30C830C144BF04680C60ED
:10014000704700000023002400250026103A28BF35
:1001500078C1FBD8520728BF30C148BF0B60704739
:10016000662902F01B84002070471FB500F02AFBAF
:1001700004000020002102F027FAE0601FBD10B546
:1001800010BD00F01FFC1146FFF7EFFF02F0A6F9CB
:1001900000F03DFC03B4FFF7F2FF03BC00F080FC6D
:1001A0000948804709480047FEE7FEE7FEE7FEE70B
:1001B000FEE7FEE7FEE7FEE7FEE7FEE70448054947
:1001C000054A064B7047000015240008ED000008A2
:1001D000C0000020C0060020C0020020C002002095
:1001E0000FB41CB5074B06AA7B44694600900598DE
:1001F00000F0CFFA0020694600F0DEFA1CBC5DF882
:1002000014FB0000CD0500002DE9F0474FF0000A77
:1002100089460446C0F820A02046E16888470028A7
:1002200076D0252806D0D4E901219047206A401CC9
:100230002062F1E7E168204600258847C4F81CA049
:1002400006460027C4F818A02A2E09D0304602F02E
:100250003DF938B304EB8708303EC8F8186019E060
:1002600059F8041B204604EB87029161E168884736
:10027000012F064618D1E069002820DA25F0200574
:100280001DE0D8F8180000EB800006EB4000303885
:10029000C8F818002046E1688847064602F016F9BB
:1002A0000028EED1012F0AD02E2E08D12046E16879
:1002B00088477F1C0646022F45F02005C4DBA06955
:1002C000002803DA404245F00105A061E80701D0AB
:1002D00025F01005B6B1A6F14100192802D8203644
:1002E00045F400654A463146204625604D46FFF7F5
:1002F00037FF58B1012806D0ED1D25F0070000F1A9
:10030000080989E704E005F1040985E730468AE732
:10031000206ABDE8F0874FF0000200B5134694460E
:100320009646203922BFA0E80C50A0E80C50B1F14D
:100330002001BFF4F7AF090728BFA0E80C5048BF61
:100340000CC05DF804EB890028BF40F8042B08BFFF
:10035000704748BF20F8022B11F0804F18BF00F8FB
:10036000012B704770477047704770472DE9FF4F6A
:100370000C461E464FF0FF378BB0D2E90001DDF886
:1003800060800A908A46C1F30A5505B93D460021AE
:1003900008464FF00000BAF1000F00F4400005DA03
:1003A00000EB80004FF4400101EA50004FEA905901
:1003B000B9F1010F00DDB9460A9850EA4A000ED0A3
:1003C00044F61050A5F2FF3545432F14B8F1000F45
:1003D0001ED07542291E1EDDC9F100021CE0B8F1D5
:1003E000010F4FF0000001D0302103E0F24305E09F
:1003F0002154401CB042FBDB304600220021215436
:100400000B99C1F80880C1E900200FB0BDE8F08F5A
:10041000BD1B6D1CDEE74A4600DA694206A800F003
:100420005BFA06AB93E8070003AB83E8070050468E
:100430000A9900F03CFB8DE80700A0F500501F383A
:1004400000900398002D0ADD42F21F014A4608443D
:10045000002303A90390684600F0A5FD09E0A0F57C
:1004600000504A461F38002303A90390684600F055
:10047000AFFD8DE807000004000C03D04FF0FF3003
:10048000410800E01046B8F1000F03D000220092AE
:1004900015461EE0751E05D400F098F930326255FD
:1004A0006D1EF9D5B3460122084302D000227F1CFD
:1004B00004E02078302801D100227F1E002A09970D
:1004C00084D01DE0112D07DA00F080F9303262553A
:1004D0006D1C50EA0102F5D1084302D00098C8B162
:1004E0000EE00021681E05E0235C625C6354225428
:1004F000401E491C8142F7DBAB46A81B401E0990F9
:10050000002004F80B000B98099AC0F80880C0E995
:10051000002B7AE711264FF0000857E72DE9F04F3E
:1005200088460446D21D22F0070191B0D1E90001AE
:10053000CDE90A0101F0A6FF02460B98C00F01D0D9
:100540002D2007E02068810701D52B2002E0202123
:1005500001EAC000032A099001D0072A05DB0346FF
:100560004146204600F078F90BE12078800601D55D
:10057000E06900E00620B8F1650F814606D0B8F1C9
:10058000660F18D0B8F1670F70D131E00020B9F1D3
:10059000110F009001DB112301E009F101030AAA08
:1005A00001A90CA8FFF7E2FEDDE90C70002609F1B5
:1005B0000105834647E001204B4600904FF000477D
:1005C0000AAA01A90CA8FFF7D1FEDDE90DB00C992C
:1005D0005D46002610B909F101000D18B9EB0500C0
:1005E00003D4C0F1FF3609F10105A5EB09002BE0AA
:1005F000B9F1010F01DA4FF001090020B9F1110F33
:100600000090484601DD112300E003460AAA01A933
:100610000CA8FFF7ABFEDDE90C704D4600268346C3
:10062000207800070AD4AB4500DA5D4601A8012D09
:1006300004DD411911F8011C302907D04F4502DAB9
:1006400017F1040F04DA012082460FE06D1EEEE779
:10065000002F02DCED1B3E4403E0781CA84200DDC5
:100660007D1CB81B00F1010A4FF0004720780007FD
:1006700003D4AA4501DB4FF0FF3A0021B7F1004F48
:100680000DF143088DF8431024D002202B23002FB6
:1006900001DA7F422D230A21021EA0F1010000DCB5
:1006A0005FB197FBF1FC97FBF1F201FB1C7C174655
:1006B0000CF1300C08F801CDEEE7A8F10100037051
:1006C0002188090501D5452100E06521A0F1010837
:1006D00000F8011C09980FA9A1EB0807FF1D00B144
:1006E0000120411901EBEA70A1693844081A401E43
:1006F000A0612078C00602D42046AFF3008009989C
:1007000028B1D4E901219047206A401C206220785A
:10071000C00622D52046AFF300801EE0002E04DB89
:10072000B34502DD01A8805D00E03020D4E901215D
:100730009047206A401C2062761CAAF101005FEA03
:10074000000A0AD100F03EF8C0680168405CD4E9B4
:1007500001219047206A401C2062281EA5F1010556
:10076000DCDC07E0D4E9012118F8010B9047206A8E
:10077000401C2062381EA7F10107F3DC2046AFF3CE
:100780000080032011B041E601694A1C026108782B
:10079000704700B58FB0CDE90131002105910549C1
:1007A0007944CDE9031011466846FFF72DFD0FB0DF
:1007B00000BD0000E5FFFFFF0A6802F8010B0A60B8
:1007C00070470000004870477C00002030B5B0F151
:1007D0000A024FEA900E71F100034EEA817EB0EBFF
:1007E0000E0061EB91014FEA101E4EEA017E10EB04
:1007F0000E0041EB11114FEA102E4EEA016E10EB84
:100800000E0041EB11214FEA104E4EEA014E10EB63
:100810000E0041EB1141401841F100014FEAD000B8
:1008200040EA41704FEAD10110EB80054FEA8104A4
:1008300044EA907444EB01046D1944EB0404521B28
:10084000A3414FF0000348BF0A3200D530BD401C21
:1008500041F1000130BD00002DE9F0411F46044682
:1008600003260168072A01F4006004DB08B116A51D
:1008700005E016A503E008B115A500E015A521F0D7
:1008800010002060A069C01EA0610FB1401EA061D1
:100890002046AFF300804FB1D4E90121384690479C
:1008A000206A401C2062C01C206206E0206AFAE731
:1008B000D4E9012115F8010B9047761EF8D22046A5
:1008C000AFF30080BDE8F0814E414E006E616E00D6
:1008D000494E4600696E66002DE9F047814616468E
:1008E0008AB0354878440DC88DE80D003248784408
:1008F000801C03AC0DC884E80D0041F69B30084411
:10090000372190FBF1F290FBF1F5A5F1800501FB99
:1009100012041B3C02D56442012000E00020DFF8F5
:1009200098A080460027FA44AAF1BE0A0EE0E0072C
:100930000AD03246684607EB470101230AEB8101E2
:1009400000F046FB8DE8070064107F1C002CEED100
:10095000194F7F44AE3F19E0E80715D007EB0410AC
:100960000DF1180A90E80E008AE80E00C068F04207
:1009700001D1981908903246012306A903A800F076
:1009800027FB03AB83E807006D10641C002DE3D147
:100990004FF0010332466946B8F1000F03A802D0B8
:1009A00000F001FB01E000F013FBC9E90001C9F808
:1009B00008200AB0BDE8F0874C21000000487047CD
:1009C0005C0000207546FFF7F9FFAE46050069465A
:1009D000534620F00700854618B020B5FFF7EEFB20
:1009E000BDE820404FF000064FF000074FF0000830
:1009F0004FF0000B21F00701AC46ACE8C009ACE8B1
:100A0000C009ACE8C009ACE8C0098D46704710B514
:100A10000446AFF300802046BDE81040FFF7BABBA4
:100A20004FF0013C50F8042B51F8043B9A4221D17D
:100A3000A2EB0C03934313EACC1317D150F8042B09
:100A400051F8043B9A4215D1A2EB0C03934313EAED
:100A5000CC130BD150F8042B51F8043B9A4209D126
:100A6000A2EB0C03934313EACC13DBD04FF000004E
:100A7000704700BFD01A01BAB1FA81F101F0180134
:100A800022FA01F0CB40C1F12001DBB2C0B2C01AA2
:100A90002CFA01F3D11A914311EAC311E6D1704740
:100AA00001491820ABBEFEE72600020070475FEA4E
:100AB000400C08BF91F0000F4FEA8C234FEAC1228F
:100AC00043EA51514FEA1C5018BF00F5F0404FEA7D
:100AD000300018BF41F000415FEA6C5C00F02980F3
:100AE000BCF1FF3F08BF40F080407047130C06BFC9
:100AF00012044FF0100C4FF0000C130E04BF120242
:100B00000CF1080C130F04BF12010CF1040C930F2D
:100B100004BF92000CF1020CD30F04BF52000CF181
:100B2000010C11464FF00002A0F11F00A0EB0C00D9
:100B3000704711F0004F08BF704731F000413FF49B
:100B4000D5AF0B0C06BF09044FF0100C4FF0000C92
:100B50000B0E04BF09020CF1080C0B0F04BF0901B6
:100B60000CF1040C8B0F04BF89000CF1020CCB0FAD
:100B700004BF49000CF1010CCCF12003A0EB0C00E8
:100B800022FA03F302FA0CF241EA030100F1010038
:100B9000704720F07F4C80EA030023F07F47ACEBE6
:100BA000070303F57C5300F0004003F1FF032DE938
:100BB00080494FEA154B09B44FEA144325EA0B4E1E
:100BC00024EA03480FF2042606EB132749083E786F
:100BD0005FEA320203FB0667C7F5000707FB06F66C
:100BE0004FEA54374FEAD64606F1020607FB066C79
:100BF000CCF1005C4FEA1C472CEA074C07FB06F4DB
:100C00000CFB06F504EB15464FEA961634BF0020A0
:100C10004FF000404FEAD13706FB07FC4FEA1C4C6F
:100C20000CFB0BF7D21B03FB0CF761EB07010CFB72
:100C30000EF7B0EB074072EB17420CFB08F734BF1E
:100C4000A2EB0742B2EB074261EB17414FEA0C44BB
:100C50004FEA910706FB07FC4FEA1C4C0CFB0BF715
:100C6000B0EBC74072EB573203FB0CF734BFA2EB7B
:100C7000C742B2EBC74261EB57310CFB0EF7B0EB4A
:100C8000C70072EB57720CFB08F734BFA2EBC70228
:100C9000B2EBC70261EB5771039F4FEA816141EAF2
:100CA000921104EBCC044FEAD1374FEA826206FB83
:100CB00007FC42EA90124FEA80604FEA1C4C0CFBA2
:100CC0000BF7D21B03FB0CF761EB07010CFB0EF7D4
:100CD000B0EB074072EB17420CFB08F734BFA2EBF6
:100CE0000742B2EB074261EB17414FEA8C554FEADE
:100CF000910704EB9C2406FB07FC4FEA1C4C0CFB01
:100D00000BF7B0EBC74072EB573203FB0CF734BF65
:100D1000A2EBC742B2EBC74261EB57310CFB0EF7B7
:100D2000B0EBC70072EB57720CFB08F734BFA2EBB5
:100D3000C702B2EBC70261EB577115EB4C254FEAC6
:100D4000816141EA92114FEA82624FEAD13742EA69
:100D5000901206FB07FC44F100044FEA80604FEA62
:100D60001C4C0CFB0BF7D21B03FB0CF761EB0701D0
:100D70000CFB0EF7B0EB074072EB17420CFB08F7C9
:100D800034BFA2EB0742B2EB074261EB174115EB10
:100D90001C154FEA813141EA92414FEA823242EA20
:100DA00090424FEA80304FEA0C7644F1000448EA62
:100DB00003434EEA0B484FF0000EB2EB080C71EB08
:100DC000030724BF624639464EEB0E0E4FF0000B70
:100DD0000018524149414BEB0B0BB2EB080C71EB85
:100DE00003077BF1000B24BF624639464EEB0E0E23
:100DF0004FF0000B0018524149414BEB0B0BB2EB8B
:100E0000080C71EB03077BF1000B24BF62463946E7
:100E10004EEB0E0E51EA020718BF46F0010616EB24
:100E20000E7655F1000254F1000103D5BDE88901A9
:100E3000BDE80088BDE88901BDE80048B619524107
:100E400041EB0101A3F10103704780807F7E7D7C2F
:100E50007B7A7978777676757473727171706F6E4C
:100E60006E6D6C6C6B6A6A696868676666656464F7
:100E7000636362616160605F5F5E5E5D5D5C5C5B81
:100E80005B5A5A59595858575756565555555454F0
:100E9000535352525251515050504F4F4F4E4E4D4E
:100EA0004D4D4C4C4C4B4B4B4A4A4A49494948489A
:100EB00048474747474646464545454444444443DA
:100EC00043434342424242414141002B9C4630D47D
:100ED00077002BD01CB54FEA370703B44FF0100052
:100EE0004FF01001BAF1000F06D0BCF1000FDCBFCB
:100EF00040F0080040F008014FF000000FBCBDE8D2
:100F000010400BF1010BBBF1010F08BF5FEA17079F
:100F100022BF12F1010211F101014FF0004143F132
:100F2000000300F0004043EA00007047F9D357087F
:100F3000D0E746EA064613F1400F4FEA16461FDD9A
:100F400013F1200FDFBF16430A46002120335B4216
:100F5000BED0C3F1200746EA064602FA07F74FEA79
:100F6000164646EA0706C3F1200722FA03F201FA01
:100F700007F721FA03F14FF0000342EA0702A7E75F
:100F800046EA020646EA06464FEA164646EA0106E1
:100F9000BCBF46EA0646360C4FF000034FF0000295
:100FA0004FF0000194E72DE9804C9A46934670B4C7
:100FB00091E8380007C831EA400C48BF34EA430CD6
:100FC00003D5FFF7E6FDFFF780FFF0BCBDE8008C1E
:100FD0002DE9804C9A46934670B491E8380007C8D2
:100FE00010F0804F08BF13F0804F03D100F005F8D8
:100FF000FFF76BFFF0BCBDE8008C20F07F4780EA74
:10100000030023F07F4C07EB0C03A3F57C5300F0A7
:101010000040A3F1FE0392F0000F00F0B38095F0C2
:10102000000F00F077802DE901494FEA11404FEAA7
:10103000144621EA004800FB06FC24EA064708FBA8
:1010400006F607FB08F800FB07F718EB06484CEB21
:10105000164C4FEA124B18EB07484FEA15464CEB7B
:10106000174022EA0B4E0BFB06FC25EA06470EFB57
:1010700006F607FB0EFE0BFB07F71EEB064E4CEBCE
:10108000164C4FF000061EEB074E4CEB174B18EBBF
:101090000B0840F1000018EB0E0B58EB000840F174
:1010A00000008F1A4FF000013CBFC943661B14BFFC
:1010B000B5EB040C00213CBFC943F61B4FEA1744B3
:1010C0004EEA8E0E27EA04454FEA1C4704FB0762EE
:1010D0002CEA074C05FB07F70CFB05F604FB0CFCA0
:1010E00016EB074642EB174216EB0C4642EB1C424E
:1010F0001BEB060658EB0202414146EA9E0601D56B
:10110000BDE80189B619524141EB0101A3F1010388
:10111000BDE801894FEA14454FEA114724EA054624
:1011200021EA074C05FB07F406FB07F70CFB06F169
:1011300005FB0CFC11EB074144EB17444FEA124747
:1011400011EB0C4144EB1C4422EA074C05FB07F26F
:1011500006FB07F70CFB06F605FB0CFC16EB074637
:1011600042EB174216EB0C4642EB1C456A1854F151
:10117000000148BF7047B619524141EB0101A3F18C
:101180000103704795F0000F37D04FEA11424FEA44
:10119000144721EA024624EA074C02FB07F106FB4A
:1011A00007F70CFB06F402FB0CFC14EB074441EBC5
:1011B00017414FEA154714EB0C4441EB1C4125EA5B
:1011C000074C02FB07F506FB07F70CFB06F602FBD4
:1011D0000CFC16EB074645EB174516EB0C4645EBAA
:1011E0001C42121951F1000148BF7047B619524113
:1011F00041EB0101A3F1010370474FEA14454FEAA7
:10120000114724EA054621EA074C05FB07F106FBD6
:1012100007F70CFB06F24FF0000605FB0CFC12EB87
:10122000074241EB174112EB0C4251EB1C4148BF06
:101230007047921841EB0101A3F1010370470000D0
:10124000014800F0F3B800001800002070B5044613
:1012500000688168C943C90717D1816821F001017D
:10126000816000F021FC05460AE000BF00F01CFC94
:10127000401B022804D920688068C043C00706D0FC
:1012800020688068C043C007F0D0002070BDA06A0D
:1012900040F01000A062E06A40F00100E06201202E
:1012A00070BD0000F8B5002604460096006881680D
:1012B000C943C9072DD0816841F0010181601648FA
:1012C00016490068B0FBF1F000E0401E00900028D5
:1012D000FBD100F0E9FB054616E000BF00F0E4FB9F
:1012E000401B022810D920688068C043C0070BD07B
:1012F000A06A40F01000A062E06A40F00100E062E5
:1013000084F824600120F8BD20688068C043C007CD
:10131000E4D10020F8BD00001400002040420F007E
:10132000FEE7704770470000F8B50024009490F87D
:1013300024202546012A12D0012280F824204A6860
:101340001F23072A0DD20668776B521E02EB82021A
:1013500093409F430B6893401F43776319E002203B
:10136000F8BD06680D2A0AD2376BD21F02EB820243
:1013700093409F430B6893401F43376309E0F76A2C
:101380000D3A02EB820293409F430B6893401F4348
:10139000F7620A68072306680A2A0AD3F7680A3A36
:1013A00002EB420293409F438B6893401F43F760D8
:1013B00008E0376902EB420293409F438B689340F9
:1013C0001F4337610A68102A01D0112A20D1124B1D
:1013D00002689A4217D193681B0219D4936843F4A8
:1013E000000393600968102912D10C490C4A09685E
:1013F000B1FBF2F101EB8101490000E0491E0091CF
:101400000029FBD104E0816A41F0200181620124BE
:1014100080F824502046F8BD00240140140000202C
:1014200040420F0070470068C06C704710B504461A
:1014300000684168890626D50168890723D5A16A15
:10144000C90603D4A16A41F40071A1628168C1F3A5
:101450004241072910D1217B71B9416821F0200157
:101460004160A06A20F48070A062A06AC00403D426
:10147000A06A40F00100A0622046FFF7D3FF216878
:101480006FF0120008602068416809062ED50168D7
:1014900049072BD5A16AC90603D4A16A41F40051BA
:1014A000A1628168C1F30231072909D04168490569
:1014B00015D48168C1F34241072910D1217B71B94C
:1014C000416821F080014160A06A20F48050A06250
:1014D000A06AC00503D4A06A40F00100A0622046C3
:1014E000FFF720FF21686FF00C000860206841685A
:1014F00049060DD50068C0070AD0A06A40F48030C4
:10150000A062204600F094F821686FF001000860A6
:1015100010BD00002DE9F0414FF0000704003D46EA
:101520007ED0A06A002628B9E66284F824602046AE
:1015300000F080F82046FFF789FEA16AC90600D4B2
:1015400020B1A06A40F01000A06269E0A16A21F415
:10155000885141F00201A1626268E169237B0A437C
:1015600047EA43010A43A1684FF48077B94209D0A2
:10157000012907D05FF0000194F814C0BCF1010FFD
:1015800002D00AE03946F7E7F3B1A36A43F020033B
:10159000A362E36A43F00103E3622368D3F804C063
:1015A0002CF4694C4CEA010CC3F804C021688B6828
:1015B000DFF870C003EA0C0313438B60A168B942E3
:1015C0000BD0012909D00CE0DFF85CC0A3690CEB5B
:1015D00043330B4343F40061DFE7218A0D05A5F592
:1015E00080152168CB6A23F470032B43CB622168FA
:1015F00089680E4B1940914208D1E662A16A21F038
:10160000020141F00101A162BDE8F081A06A20F071
:10161000020040F01000A062E06A40F00100E062C9
:101620000120F1E7FDF7E1FF00E0FFFFFE0E1FFFE5
:101630007047000000B585B0002100910191029132
:10164000039100681249884220D11248816941F40F
:1016500000718161816901F400710491816941F037
:10166000040181618069694600F004000490012052
:10167000009003200190084800F020F90022012189
:10168000122000F075FA122000F064FA05B000BDD7
:101690000024014000100240000801402DE9F843F9
:1016A00000270D460446009700F0FEF980462068AA
:1016B0008168C90508D5A06A40F02000A06284F8BE
:1016C00024700120BDE8F8834168C90503D4C06ACD
:1016D00010F4700F2AD0022000F07CFA3B49096810
:1016E000B1FBF0F62068036939490B424FEA61010A
:1016F0004FEAA1121FD1C3684FEA611C13EA0C0F15
:1017000019D103690B4225D1C068104222D114209F
:1017100023E0681C0AD02DB100F0C6F9A0EB080048
:10172000A84203D920680068800725D52068006892
:101730008007EED52DE003690B4202D1C16811424A
:1017400006D0026923490A4206D1C068084203D183
:10175000542002E0292000E0FC204643009816E0D7
:10176000681C11D02DB100F09FF9A0EB0800A84231
:101770000AD90098B04207D2A06A40F00400A062E3
:1017800084F8247003209DE70098401C0090B0422C
:10179000E6D321686FF012000860A06A40F4007080
:1017A000A06220688068C0F3424007280CD1207BEB
:1017B00050B9A06A20F48070A062A06AC00403D46B
:1017C000A06A40F00100A06200207BE71400002026
:1017D000244992244992240070B5044690F82400CC
:1017E00001280DD0012084F824002046FFF75AFD7F
:1017F00002004FF0000005D084F82400104670BDB0
:10180000022070BDA16A40F20123994341F4807126
:10181000A1621F4D23681F49AB4218D10E6816F410
:10182000702F14D0A66A46F48016A6620E6876055C
:1018300005D5A66A26F4005646F48056A662A66A26
:10184000F6040AD5E66A26F00606E66206E0A66A0F
:1018500026F48016A6625E68E9E7E06284F8240058
:101860006FF00200186020688368C3F34243072BBF
:1018700005D1A84208D1096811F4702F04D08168FD
:1018800041F480118160B9E7816841F4A001F9E772
:10189000002801400424014070B5044600F004F91A
:1018A0000546601C02D004480078044400F0FCF8AF
:1018B000401BA042FAD370BD080000202DE9F84F6C
:1018C000DFF8B891002409F1040A0AF1040B234659
:1018D0000F270BF1040EC9E00125A5402A40AA42BA
:1018E0007DD1674ED1F804C0ACEB0608B44532D0C8
:1018F00014DCBCF1030F3AD009DCBCF1000F2AD094
:10190000BCF1010F1CD0BCF1020F31D11DE0BCF1C4
:10191000110F17D0BCF1120F2AD119E0B8F5881FAA
:1019200019D006DCB8F5803F15D0B8F5801F1FD15F
:1019300011E0B8F5001F0ED0B8F5041F18D10AE069
:10194000CB6815E0CB681B1D12E0CB6808330FE0B5
:10195000CB680C330CE08B682BB1012B4FF00803E4
:1019600003D0456104E0042302E0056100E00023A8
:10197000FF2A01D8064601E000F104064FEA84057B
:1019800001D9A5F12005D6F8008007FA05FC28EA60
:101990000C0803FA05F548EA0508C6F800804D680A
:1019A000ED0062D5374DAE6946F00106AE61AD6916
:1019B00024F0030605F001050095334D06EB050CF8
:1019C000DCF80850A607360F07FA06F825EA0805DE
:1019D000DFF8B880404503D14FF0000817E044E03D
:1019E000DFF8AC80404502D14FF001080FE0DFF88E
:1019F000A480404502D14FF0020808E0DFF898804B
:101A0000404502D14FF0030801E04FF0040808FA06
:101A100006F848EA0508CCF808804D68D9F8006057
:101A2000ED034D4601D5164300E096432E604D6808
:101A3000DAF80060AD03554601D5164300E0964341
:101A40002E604D68DBF80060ED025D4601D516435F
:101A500000E096432E604D68DEF80060AD027546EA
:101A600001D5164300E096432E60641C0D682A469B
:101A7000E5407FF431AFBDE8F88F0000000401407D
:101A80000000111000100240000001400008014059
:101A9000000C014000100140001401400AB1016136
:101AA00070470904FBE700000148806870470000A8
:101AB0000800002002488168027811448160704764
:101AC00008000020074810B5016841F010010160CE
:101AD000032000F06DF8002000F006F800F024F874
:101AE000002010BD0020024070B50D4D04464FF49B
:101AF0007A712878B1FBF0F00A490968B1FBF0F07F
:101B000000F0AEFB48B9102C07D200222146501E2F
:101B100000F02EF800206C6070BD012070BD000048
:101B20000800002014000020094808B5816941F030
:101B300001018161816901F001010091C16941F0F8
:101B40008051C161C06900F08050009008BD000064
:101B500000100240002809DB00F01F020121914023
:101B60004009800000F1E020C0F80011704700003B
:101B7000F0B40E4B1B680C46C3F30223C3F10705F8
:101B8000042D00D90425191D072901D2002300E0E6
:101B9000DB1E012606FA05F1491E214099409E40B0
:101BA000761E16403143F0BC00F080BC0CED00E026
:101BB000064900F0070208684FF6FF03184040EAA4
:101BC0000220034A10430860704700000CED00E05B
:101BD0000000FA0510B529A401461DCC86B08DE899
:101BE0001D002AA02A4C006804900020012923D05F
:101BF00002293AD010291DD161682268D20119D575
:101C0000C1F38342C9031DF8020009D5616804AA23
:101C1000C1F34041515C1F4AB2FBF1F1484301E07E
:101C20001D4948436168490204D440005FF0030144
:101C3000B0FBF1F006B010BD226AC2F30121012908
:101C400003D1920701D5C803F4E7022905D1626ADE
:101C5000920702D549F64040ECE70329EAD1216812
:101C60008903E7D54FF22440E4E700F023F96168E7
:101C7000C1F38131491C4900DAE700000203040581
:101C8000060708090A0B0C0D0E0F101001020000C8
:101C90000010024000127A0000093D002DE9F843CF
:101CA00005460078354CC00754D0E0690026C000D6
:101CB00008D4E06940F08050E061E069012600F05E
:101CC000805000902E480168C90512D401688046F2
:101CD00041F480710160FFF7E7FE074605E000BFB1
:101CE000FFF7E2FEC01B642823D8D8F80000C00527
:101CF000F6D5206A10F4407021D0A98801F4407113
:101D000081421CD0206A1F49012220F440700A60E1
:101D100000220A602062C00711D0FFF7C5FE074607
:101D200041F2883808E000BFFFF7BEFEC11B414505
:101D300002D90320BDE8F883206A8007F4D5206A21
:101D4000696820F44070084320621EB1E06920F009
:101D50008050E0612878800705D56068A96820F484
:101D60004040084360602878C00605D56068E9688F
:101D700020F48000084360600020DBE70010024090
:101D800000700040400442422DE9F0470F46050034
:101D900061D0434E306800F00700B84209D2306885
:101DA00020F0070038433060306800F00700B84288
:101DB00051D128683B4C810712D5400703D5606894
:101DC00040F4E06060602878000703D5606840F464
:101DD000605060606068A96820F0F00008436060AF
:101DE0002878C00728D06868012810D02168022808
:101DF00010D0890700292EDA616821F00301014320
:101E00006160FFF751FE804641F288390DE021689C
:101E10008903EFE78901EDE7FFF746FEA0EB080134
:101E2000494502D90320BDE8F0876068696800F081
:101E30000C00B0EB810FEFD1306800F00700B84222
:101E40000BD9306820F0070038433060306800F06C
:101E50000700B84201D00120E5E72878400705D502
:101E60006068E96820F4E060084360602878000753
:101E700006D56068296920F4605040EAC1006060BE
:101E800000F028F86168084AC1F30311515CC840AA
:101E90000649086006480068FFF726FE0020C2E7F2
:101EA0000020024000100240A02900081400002079
:101EB0000C0000200448054900684968044AC1F341
:101EC000C221515CC840704714000020001002403D
:101ED000B029000812A185B00FC98DE80F0014A029
:101EE000144A006804905168134801F00C03042B55
:101EF00010D0082B0ED1C1F38343C9031DF8030092
:101F00000AD5516804AAC1F34041515C0A4A5043C2
:101F1000B0FBF1F005B0704708494843FAE700000C
:101F200002030405060708090A0B0C0D0E0F10101A
:101F3000010200000010024000127A0000093D007A
:101F40002DE9F84F040070D02078C04DC00749D06B
:101F50006868C0F38100012807D06868C0F3810079
:101F6000022809D16868C00306D52868800339D5DE
:101F700060680028E7D035E06068B0F5803F0BD09E
:101F800010B1B0F5A02F11D0286820F4803028605F
:101F9000286820F4802002E0286840F4803028601F
:101FA000606890B1FFF780FD06460AE0286840F4BB
:101FB00080202860F0E700BFFFF776FD801B6428D3
:101FC00073D828688003F7D50CE0FFF76DFD06464F
:101FD00005E000BFFFF768FD801B6428F0D8286883
:101FE0008003F7D420789A4E80074FF001094FF014
:101FF000000839D5686810F00C0F07D06868C0F386
:102000008100022809D16868C00306D428688007C7
:1020100014D52069012808D110E02069B0B1C6F8B4
:102020000090FFF741FD074605E00AE1FFF73CFDA0
:10203000C01B0228C4D828688007F7D528686169C2
:1020400020F0F80040EAC10028600DE0C6F80080EA
:10205000FFF72AFD074604E0FFF726FDC01B022814
:1020600023D828688007F7D4207800072CD5794832
:10207000A169D9B1C0F80090FFF716FD074604E04A
:10208000FFF712FDC01B02280FD8686A8007F7D53A
:1020900071484FF4FA510068B0FBF1F0009000BFB6
:1020A0000098411E0091FAD20EE080E0C0F8008056
:1020B000FFF7FAFC074604E0FFF7F6FCC01B022816
:1020C00075D8686A8007F7D42078400760D5E8693A
:1020D0000027C00008D4E86940F08050E861E86952
:1020E000012700F0805000905C480168C90513D4B6
:1020F0000168834641F480710160FFF7D5FC824698
:1021000006E000BFFFF7D0FCA0EB0A0064284ED821
:10211000DBF80000C005F5D5E06801280AD008B159
:10212000052813D0286A20F001002862286A20F0D0
:10213000040002E0286A40F001002862E06841F2F1
:10214000883B98B1FFF7B0FC82460BE0286A40F06C
:1021500004002862EEE700BFFFF7A6FCA0EB0A012F
:1021600059455AD8286A8007F6D50CE0FFF79CFC41
:10217000824605E0FFF798FCA0EB0A0159454CD8D0
:10218000286A8007F6D41FB1E86920F08050E86122
:10219000E06988B36968C1F38101022944D002284B
:1021A000C6F8608004D0FFF77FFC044638E034E0D6
:1021B000FFF77AFC074604E0FFF776FCC01B022815
:1021C0002BD828688001F7D4206AB0F5803F05D16C
:1021D0006868A16820F4003008436860D4E9080109
:1021E0000843696821F4741108436860C6F8609078
:1021F000FFF75AFC044606E025E000BFFFF754FC59
:10220000001B022809D828688001F7D51BE000BF11
:10221000FFF74AFC001B022802D90320BDE8F88F13
:1022200028688001F4D40EE00128F7D06868226A9B
:1022300000F48031914204D1616A00F47010884248
:1022400001D00120EAE70020E8E70000001002408A
:10225000000042428004424214000020007000400E
:1022600010B5401EB0F1807F01D3012010BD4FF0AA
:10227000E02460610F21601700F018F90020A061D0
:1022800007202061002010BDFEE7000070B5104C53
:10229000064600224FF480612046FFF7FFFB002234
:1022A00061152046FFF7FAFB012215022946204658
:1022B000FFF7F4FB304600F0AFF800222946204635
:1022C000FFF7ECFBBDE870400A20FFF7E5BA00001D
:1022D000000C014070B50F4C0646012291022046C9
:1022E000FFF7DCFB002261152046FFF7D7FB012238
:1022F000150229462046FFF7D1FB304600F08CF846
:10230000002229462046FFF7C9FBBDE870400A209D
:10231000FFF7C2BA000C014010B5044603E000BF4D
:10232000FFF7D8FF641C20780028F9D110BD10B544
:102330000320FFF7ABFF3820FFF7A8FF0620FFF7C9
:10234000A5FF0C20FFF7A2FFBDE810400120FFF71A
:102350009DBF00003EB500241048009401940294F3
:102360000D498460016001250573047505614FF412
:1023700060214460C161FFF7CDF808B172B6FEE795
:10238000CDE90045694605480294FEF7CDFF0028D7
:1023900001D072B6FEE73EBD0024014018000020C7
:1023A000FEE7FEE770477047FFF784BB30B593B098
:1023B00028216846FDF7AFFF14210AA8FDF7ABFFFF
:1023C000002401200F940225049000951020119400
:1023D00005901094129407946846FFF7B1FD08B178
:1023E00072B6FEE70F20CDE90A040C940D9400218B
:1023F0000AA80E94FFF7C8FC08B172B6FEE70FA852
:102400000F951194FFF74AFC002801D072B6FEE741
:1024100013B030BD7047FEE770B5194D044600F0AB
:10242000010201212846FFF739FBC4F340020221D3
:102430002846FFF733FBC4F3800204212846FFF748
:102440002DFBC4F3C00208212846FFF727FBC4F385
:10245000001210212846FFF721FBC4F3401220216F
:102460002846FFF71BFBC4F3801240212846FFF7E4
:1024700015FBE2092846BDE870408021FFF70EBB3E
:10248000000C0140490050EAC12018BF04204A0D49
:1024900018BF40F0010040F2FF72B2EB515F08BF7D
:1024A00040F00200012808BF052070470907090E07
:1024B000002804DB00F1E02080F80014704700F0F1
:1024C0000F0000F1E02080F8141D704730380A2812
:1024D00001D20120704700207047000086B0FFF74E
:1024E000F1FAFFF763FF00242C4800940194029452
:1024F0000394816941F004018161816901F0040163
:102500000491816941F0080181618069244E00F0E5
:10251000080040F2FF750490002229463046FFF77C
:10252000BDFA01200095CDE901040220039069461F
:102530003046FFF7C3F9FFF70DFFFFF7F8FE194824
:10254000FFF74AF9184C194D194E1A4F3221154808
:10255000FFF7A4F81348FEF766FF80B2208000F072
:102560003DF9294600F04EF9314600F075F839463C
:1025700000F048F960608020FFF788FE606800F096
:102580003FF8024607480B460BA13030FDF728FE06
:1025900004483030FFF7C0FED8E7000000100240CA
:1025A000000C014018000020000000200000A040A6
:1025B00000F07F450000C8424E6869657420646F72
:1025C0003A20252E3266000010B500290AD008787E
:1025D000002807D005487844FEF722FA002801D0E9
:1025E000002010BD0248784410BD00009604000091
:1025F0008E0400000808A0F500114FEA3101704771
:1026000043004FEAD30C4FEA3C0C43401FBF400746
:102610000CF1605113F0FE4F70471CF0006F03D1B6
:1026200000200CF0004170470CF0004343EA50706A
:1026300010B540EACC0000F066F900BF000000923F
:102640004FEA0001FFF7D6BF4FF000414FF0000006
:10265000A1F50021704700004FF47F0C1CEAD01256
:102660001EBF1CEAD11392EA0C0F93EA0C0F00F084
:10267000858090EA010F48BF42F4807240F4000C5C
:1026800041F400002CF07F4120F07F4000B58142F2
:10269000A2EB03020FF2081CACEB504EC0F100009D
:1026A0009EF800E04FEA4E0E00FB0EFC38BF4900DA
:1026B0004FEA2C1C02F5FA020CFB0EF34FEACE1E79
:1026C0004FEA112C4FEAC1210EEB635E42EB22422E
:1026D0000EFB0CFC4FEA1C5300FB03114FEA112CBC
:1026E0004FEA01310EFB0CFC4FEADC4C00FB0C11F5
:1026F000C14228BF09184CEB03335DF804EB10EB23
:10270000410143EBC250B2F57C0F38BF704729D569
:1027100012F0F00F1CBF00F1C04000F00040704705
:10272000008182838485868788898B8C8D8E8F91AA
:102730009293959697999A9C9D9FA0A2A3A5A7A8CE
:10274000AAACAEB0B2B3B5B7B9BCBEC0C2C5C7C9FA
:10275000CCCED1D4D7D9DCDFE2E6E9ECF0F3F7FA5E
:10276000FE0000004FEA400C0CF1807CBCF17E4F73
:1027700028BF7047B0F1C04000F00BB990EA010FDC
:102780000CEAD11348BF42F48072624538BF6345FA
:1027900007D213F47F0F16D080EA010000F000404A
:1027A000704710B500F0AFF8097EFC3E00F005B8A8
:1027B00080EA010000F00040704780EA010000F06C
:1027C000004000F0E6B812F47F0F04BF02487047E3
:1027D00080EA010000F0DDB80000C07FB0FA80F3AD
:1027E00010FA03F2C3F19D030AD0D90501EB1220C0
:1027F000530638BF704700F1010008BF20F0010008
:10280000704700004FF47F0C1CEAD0121EBF1CEA78
:10281000D11392EA0C0F93EA0C0F00F0478090EA74
:10282000010F48BF42F480724FF0004C4CEA002088
:102830004CEA012102EB0302A0FB0113A2F5000206
:10284000002918BF43F001035B0028BF4FEA3303A0
:1028500042EB22425FEA132C4CEBC2502EBFBCEB82
:10286000436FB2F57C0F70474FEA036CBCF1004F29
:1028700008BF20F00100B2F57C0F38BF70470BD5C0
:1028800082F0FF0212F5803FC8BF704700F1C040E0
:10289000D8BF00F00040704700F5000C5FEA4C0C18
:1028A00048BF7047B0F1C04000F073B890EA010F24
:1028B0000CEAD11348BF42F48072624538BF6345C9
:1028C00004D280EA010000F00040704710B500F02B
:1028D0001AF800BF8900013E00F007B800F009B8FF
:1028E0005FEA410C5FEA1C6C08D080EA010000F04E
:1028F00050B85FEA400C5FEA1C6CF6D14FF0004024
:10290000A0F5800070470EF1020E2EF0030E5EF867
:10291000044B244204D44FEA4102B2F17F4F11D854
:102920004FEA4003B3F17F4F0CD80ED14FEAD07C71
:10293000B2F17F4F0CEB4C0C0CF1020C08BF4CEBCE
:10294000D17C04E04FF0080C01E04FEAD17C0CEBA5
:102950004C0324FA03F404F00704B4F1040C06D287
:102960000EEB840CBDE810404CF0010C6047DFE832
:102970000CF0070802024FF00040A0F5800010BDE7
:102980000846420018BFD2F1807288BF00F00040B4
:1029900010BDFF2141EAD050C0057047FDF7BEBD14
:1029A00000000000000000000102030406070809FF
:1029B000000000000102030402400000000000A02B
:1029C0000000000005400000000000C800000000FA
:1029D0000C4000000000409C000000001940000076
:1029E0000020BCBE0000000034400000BFC91B8EA8
:1029F00000000004B5400000504BCFD06607E2CF86
:102A0000010000006C4100003E8251AADFEEA734B5
:102A100001000000D9420000DCB5A0E23A301F9767
:102A2000FFFFFFFFB4450000FD25A0C8E9A3C14F8B
:102A3000FFFFFFFFFF3F00000000008000000000DC
:102A4000FF3F00000000008000000000882A00080E
:102A5000000000201800000028010008A02A00083B
:102A600018000020A8060000440100081C00000017
:102A700043000000F8FFFFFF0C0000000E00000004
:102A80000F0000002E000000000000000000000009
:102A90000100000010000000000000000024F4000D
:04000005080000ED02
:00000001FF
